:100000000C945A000C94B1000C94EE000C942B014B
:100010000C9477000C9477000C9477000C94770084
:100020000C9477000C9477000C9477000C94770074
:100030000C9477000C9477000C949B000C94A60011
:100040000C9477000C9477000C9477000C94770054
:100050000C9477000C9477000C9477000C94770044
:100060000C9477000C9477000C9477000C94770034
:100070000C9477000C9477000C9477000C94770024
:100080000C9477000C9477000C9477000C94770014
:100090000C9477000C9477000C9477000C94770004
:1000A0000C9477000C9477000C9477000C947700F4
:1000B0000C94770011241FBECFEFD8E0DEBFCDBF78
:1000C00011E0A0E0B1E0E2EEF9E002C005900D928F
:1000D000A430B107D9F721E0A4E0B1E001C01D923E
:1000E000A03AB207E1F70E9468010C94EF040C9467
:1000F00000009093C5008093C40088E18093C10004
:1001000086E08093C2000895E0ECF0E0908195FFD6
:10011000FDCF8093C6000895CF93DF93EC018881D3
:10012000882331F021960E94840089918111FBCFB0
:10013000DF91CF9108951F920F920FB60F92112465
:100140002D9A0F900FBE0F901F9018951F920F922F
:100150000FB60F9211242D980F900FBE0F901F9085
:1001600018951F920F920FB60F9211248F939F93A1
:10017000AF93BF93EF93FF93809106019091070196
:10018000019781F410928100A4E8B0E08D919C91D8
:100190001197E4E0F1E09183808311961C921E9206
:1001A000138212828091060190910701892B59F4E4
:1001B000E1E8F0E080818160808381E090E09093CD
:1001C000070180930601FF91EF91BF91AF919F913D
:1001D0008F910F900FBE0F901F9018951F920F9246
:1001E0000FB60F9211248F939F93AF93BF93EF930A
:1001F000FF938091200190912101019781F4109249
:100200009100A4E9B0E08D919C911197E4E0F1E0B8
:10021000938F828F11961C921E92158E148E809150
:10022000200190912101892B59F4E1E9F0E08081CE
:100230008160808381E090E0909321018093200190
:10024000FF91EF91BF91AF919F918F910F900FBE52
:100250000F901F9018951F920F920FB60F921124B6
:100260008F939F93AF93BF93EF93FF9380913A0146
:1002700090913B01019781F41092A100A4EAB0E0B3
:100280008D919C911197E4E0F1E095AB84AB1196D0
:100290001C921E9217AA16AA80913A0190913B01D6
:1002A000892B59F4E1EAF0E080818160808381E06C
:1002B00090E090933B0180933A01FF91EF91BF91C1
:1002C000AF919F918F910F900FBE0F901F90189537
:1002D000CF93DF93CDB7DEB728970FB6F894DEBF84
:1002E0000FBECDBF0E94BF0187E690E00E9479005B
:1002F000789480E290E29A8389831B820F2EF4E047
:10030000EF2EF1E0FF2EF02D0AE310E00F2EF0E0CB
:10031000AF2EF1E0BF2EF02D6E0124E0C20ED11CF5
:100320002B9A85E08A95F1F72B98F70180819181CE
:10033000B8010E94DD01CB0103978D38914080F711
:100340007F936F93BF92AF92DF92CF920E9405028C
:10035000C6010E948C00CE0101960E948C002FE302
:100360008DE093E0215080409040E1F700C0000014
:100370000F900F900F900F900F900F90D1CF239A66
:1003800052985A9A83ED90E30197F1F700C000006C
:10039000E9E6F0E0808181608083E89AE2E5F1E0BF
:1003A0001182108213821282138E128E158E148E79
:1003B00015AA14AA17AA16AA089597FB072E16F4D1
:1003C000009407D077FD09D00E94F10107FC05D009
:1003D0003EF4909581959F4F0895709561957F4F5C
:1003E0000895AA1BBB1B51E107C0AA1FBB1FA6177C
:1003F000B70710F0A61BB70B881F991F5A95A9F7CE
:1004000080959095BC01CD010895AEE0B0E0EBE0A1
:10041000F2E00C94C6040D891E8986E08C831A8351
:1004200009838FEF9FE79E838D83AE01475E5F4F09
:100430006F89788DCE0101960E942702EF81F885A1
:10044000E00FF11F10822E96E4E00C94E204ABE082
:10045000B0E0EDE2F2E00C94B8046C017B018A019B
:10046000FC0117821682838181FFCCC1CE010196E7
:100470003C01F6019381F70193FD859193FF8191F2
:100480007F01882309F4BAC1853239F493FD85913F
:1004900093FF81917F01853229F4B60190E00E949B
:1004A0001E04E7CF912C212C312CFFE1F315D8F05D
:1004B0008B3279F038F4803279F08332A1F4232D35
:1004C00020611DC08D3261F0803369F4232D2160DD
:1004D00016C0832D8260382EE32DE4603E2E2AC0A4
:1004E000F32DF8601DC037FC2DC020ED280F2A30F9
:1004F00040F08E32B9F436FC81C1232D2064322EB7
:1005000019C036FE06C08AE0989E200D1124922E56
:1005100011C0EAE02E9E200D1124222EF32DF06250
:100520003F2E08C08C3621F4832D8068382E02C0FF
:10053000883641F4F70193FD859193FF81917F0106
:100540008111B3CF982F9F7D9554933028F40C5F81
:100550001F4F9FE399830DC0833631F0833771F0CD
:10056000833509F059C021C0F801808189830E5F6D
:100570001F4F88248394912C530113C02801F2E06B
:100580004F0E511CF801A080B18036FE03C0692DCA
:1005900070E002C06FEF7FEFC5010E9413044C01B1
:1005A0008201F32DFF773F2E16C0280122E0420E74
:1005B000511CF801A080B18036FE03C0692D70E0A7
:1005C00002C06FEF7FEFC5010E9408044C01F32DBC
:1005D000F0683F2E820133FC1BC0822D90E088160C
:1005E0009906B0F4B60180E290E00E941E042A94BD
:1005F000F4CFF50137FC859137FE81915F01B6019B
:1006000090E00E941E0421102A9421E0821A910891
:100610008114910471F7E8C0843611F0893641F5F0
:10062000F80137FE07C060817181828193810C5F80
:100630001F4F08C060817181072E000C880B990B39
:100640000E5F1F4FF32DFF763F2E97FF09C0909549
:100650008095709561957F4F8F4F9F4FF0683F2E2B
:100660002AE030E0A3010E945A04882E861845C073
:10067000853731F4232D2F7EB22E2AE030E025C0BD
:10068000932D997FB92E8F36C1F018F4883579F003
:10069000B5C0803719F0883721F0B0C0E92FE0618C
:1006A000BE2EB4FE0DC0FB2DF460BF2E09C034FE7B
:1006B0000AC0292F2660B22E06C028E030E005C00F
:1006C00020E130E002C020E132E0F801B7FE07C0CF
:1006D00060817181828193810C5F1F4F06C06081B0
:1006E000718180E090E00E5F1F4FA3010E945A04C9
:1006F000882E8618FB2DFF773F2E36FE0DC0232D4A
:100700002E7FA22E891458F434FE0BC032FC09C08F
:10071000832D8E7EA82E05C0B82CA32C03C0B82C28
:1007200001C0B92CA4FE0FC0FE01E80DF11D8081AF
:10073000803321F49A2D997EA92E09C0A2FE06C00D
:10074000B394B39404C08A2D867809F0B394A3FCC3
:1007500011C0A0FE06C0B21488F4280C922C9B187D
:100760000EC0B21460F4B60180E290E00E941E0454
:10077000B394F7CFB21418F42B1802C0982C212C84
:10078000A4FE10C0B60180E390E00E941E04A2FE09
:1007900017C0A1FC03C088E790E002C088E590E0A4
:1007A000B6010CC08A2D867859F0A1FE02C08BE2FA
:1007B00001C080E2A7FC8DE2B60190E00E941E0419
:1007C000891438F4B60180E390E00E941E049A94E4
:1007D000F7CF8A94F301E80DF11D8081B60190E016
:1007E0000E941E048110F5CF222009F442CEB601EA
:1007F00080E290E00E941E042A94F6CFF6018681E2
:10080000978102C08FEF9FEF2B96E2E10C94D40406
:10081000FC010590615070400110D8F780959095CB
:100820008E0F9F1F0895FC016150704001900110D0
:10083000D8F7809590958E0F9F1F08950F931F9363
:10084000CF93DF93FB01238121FD03C08FEF9FEF47
:100850002CC022FF16C04681578124813581421762
:10086000530744F4A081B1819D012F5F3F4F318335
:1008700020838C93268137812F5F3F4F37832683D8
:1008800014C08B01EC01FB010084F185E02D09957A
:10089000892BE1F6D80116968D919C9117970196B8
:1008A00017969C938E931697CE01DF91CF911F914F
:1008B0000F910895FA01AA27283051F1203181F1D2
:1008C000E8946F936E7F6E5F7F4F8F4F9F4FAF4F58
:1008D000B1E03ED0B4E03CD0670F781F891F9A1F6B
:1008E000A11D680F791F8A1F911DA11D6A0F711D1F
:1008F000811D911DA11D20D009F468943F912AE02B
:10090000269F11243019305D3193DEF6CF01089512
:10091000462F4770405D4193B3E00FD0C9F7F6CF43
:10092000462F4F70405D4A3318F0495D31FD40520B
:10093000419302D0A9F7EACFB4E0A69597958795A1
:1009400077956795BA95C9F7009761057105089580
:100950009B01AC010A2E069457954795379527952C
:10096000BA95C9F7620F731F841F951FA01D0895C4
:100970002F923F924F925F926F927F928F929F92AF
:10098000AF92BF92CF92DF92EF92FF920F931F939D
:10099000CF93DF93CDB7DEB7CA1BDB0B0FB6F8944E
:1009A000DEBF0FBECDBF09942A88398848885F848E
:1009B0006E847D848C849B84AA84B984C884DF80FF
:1009C000EE80FD800C811B81AA81B981CE0FD11DE3
:1009D0000FB6F894DEBF0FBECDBFED010895F894B9
:0209E000FFCF47
:0409E2002564000088
:00000001FF
